{
  "contractName": "DappToken",
  "abi": [
    {
      "inputs": [
        {
          "internalType": "uint256",
          "name": "_initSupply",
          "type": "uint256"
        }
      ],
      "stateMutability": "nonpayable",
      "type": "constructor"
    },
    {
      "anonymous": false,
      "inputs": [
        {
          "indexed": true,
          "internalType": "address",
          "name": "_owner",
          "type": "address"
        },
        {
          "indexed": true,
          "internalType": "address",
          "name": "_spender",
          "type": "address"
        },
        {
          "indexed": false,
          "internalType": "uint256",
          "name": "_value",
          "type": "uint256"
        }
      ],
      "name": "Allowance",
      "type": "event"
    },
    {
      "anonymous": false,
      "inputs": [
        {
          "indexed": true,
          "internalType": "address",
          "name": "_from",
          "type": "address"
        },
        {
          "indexed": true,
          "internalType": "address",
          "name": "_to",
          "type": "address"
        },
        {
          "indexed": false,
          "internalType": "uint256",
          "name": "_value",
          "type": "uint256"
        }
      ],
      "name": "Transfer",
      "type": "event"
    },
    {
      "inputs": [
        {
          "internalType": "address",
          "name": "",
          "type": "address"
        }
      ],
      "name": "balanceOf",
      "outputs": [
        {
          "internalType": "uint256",
          "name": "",
          "type": "uint256"
        }
      ],
      "stateMutability": "view",
      "type": "function",
      "constant": true
    },
    {
      "inputs": [],
      "name": "name",
      "outputs": [
        {
          "internalType": "string",
          "name": "",
          "type": "string"
        }
      ],
      "stateMutability": "view",
      "type": "function",
      "constant": true
    },
    {
      "inputs": [],
      "name": "symbol",
      "outputs": [
        {
          "internalType": "string",
          "name": "",
          "type": "string"
        }
      ],
      "stateMutability": "view",
      "type": "function",
      "constant": true
    },
    {
      "inputs": [],
      "name": "totalSupply",
      "outputs": [
        {
          "internalType": "uint256",
          "name": "",
          "type": "uint256"
        }
      ],
      "stateMutability": "view",
      "type": "function",
      "constant": true
    },
    {
      "inputs": [
        {
          "internalType": "address",
          "name": "_to",
          "type": "address"
        },
        {
          "internalType": "uint256",
          "name": "_value",
          "type": "uint256"
        }
      ],
      "name": "transfer",
      "outputs": [
        {
          "internalType": "bool",
          "name": "sucess",
          "type": "bool"
        }
      ],
      "stateMutability": "nonpayable",
      "type": "function"
    },
    {
      "inputs": [
        {
          "internalType": "address",
          "name": "_spender",
          "type": "address"
        },
        {
          "internalType": "uint256",
          "name": "_value",
          "type": "uint256"
        }
      ],
      "name": "approve",
      "outputs": [
        {
          "internalType": "bool",
          "name": "success",
          "type": "bool"
        }
      ],
      "stateMutability": "nonpayable",
      "type": "function"
    }
  ],
  "bytecode": "0x60806040526040518060400160405280600981526020017f44617070546f6b656e0000000000000000000000000000000000000000000000815250600090805190602001906200005192919062000125565b506040518060400160405280600381526020017f4441540000000000000000000000000000000000000000000000000000000000815250600190805190602001906200009f92919062000125565b50348015620000ad57600080fd5b5060405162000b1338038062000b138339818101604052810190620000d3919062000215565b8060028190555080600360003373ffffffffffffffffffffffffffffffffffffffff1673ffffffffffffffffffffffffffffffffffffffff1681526020019081526020016000208190555050620002ac565b828054620001339062000276565b90600052602060002090601f016020900481019282620001575760008555620001a3565b82601f106200017257805160ff1916838001178555620001a3565b82800160010185558215620001a3579182015b82811115620001a257825182559160200191906001019062000185565b5b509050620001b29190620001b6565b5090565b5b80821115620001d1576000816000905550600101620001b7565b5090565b600080fd5b6000819050919050565b620001ef81620001da565b8114620001fb57600080fd5b50565b6000815190506200020f81620001e4565b92915050565b6000602082840312156200022e576200022d620001d5565b5b60006200023e84828501620001fe565b91505092915050565b7f4e487b7100000000000000000000000000000000000000000000000000000000600052602260045260246000fd5b600060028204905060018216806200028f57607f821691505b60208210811415620002a657620002a562000247565b5b50919050565b61085780620002bc6000396000f3fe608060405234801561001057600080fd5b50600436106100625760003560e01c806306fdde0314610067578063095ea7b31461008557806318160ddd146100b557806370a08231146100d357806395d89b4114610103578063a9059cbb14610121575b600080fd5b61006f610151565b60405161007c919061057f565b60405180910390f35b61009f600480360381019061009a919061063a565b6101df565b6040516100ac9190610695565b60405180910390f35b6100bd6102d1565b6040516100ca91906106bf565b60405180910390f35b6100ed60048036038101906100e891906106da565b6102d7565b6040516100fa91906106bf565b60405180910390f35b61010b6102ef565b604051610118919061057f565b60405180910390f35b61013b6004803603810190610136919061063a565b61037d565b6040516101489190610695565b60405180910390f35b6000805461015e90610736565b80601f016020809104026020016040519081016040528092919081815260200182805461018a90610736565b80156101d75780601f106101ac576101008083540402835291602001916101d7565b820191906000526020600020905b8154815290600101906020018083116101ba57829003601f168201915b505050505081565b600081600460003373ffffffffffffffffffffffffffffffffffffffff1673ffffffffffffffffffffffffffffffffffffffff16815260200190815260200160002060008573ffffffffffffffffffffffffffffffffffffffff1673ffffffffffffffffffffffffffffffffffffffff168152602001908152602001600020819055508273ffffffffffffffffffffffffffffffffffffffff163373ffffffffffffffffffffffffffffffffffffffff167ff0c939eb6a826391911442cba6d5a67238ac3d6ef13e3398f5def320a9629c50846040516102bf91906106bf565b60405180910390a36001905092915050565b60025481565b60036020528060005260406000206000915090505481565b600180546102fc90610736565b80601f016020809104026020016040519081016040528092919081815260200182805461032890610736565b80156103755780601f1061034a57610100808354040283529160200191610375565b820191906000526020600020905b81548152906001019060200180831161035857829003601f168201915b505050505081565b600081600360003373ffffffffffffffffffffffffffffffffffffffff1673ffffffffffffffffffffffffffffffffffffffff1681526020019081526020016000205410156103cb57600080fd5b81600360008573ffffffffffffffffffffffffffffffffffffffff1673ffffffffffffffffffffffffffffffffffffffff168152602001908152602001600020600082825461041a9190610797565b9250508190555081600360003373ffffffffffffffffffffffffffffffffffffffff1673ffffffffffffffffffffffffffffffffffffffff168152602001908152602001600020600082825461047091906107ed565b925050819055508273ffffffffffffffffffffffffffffffffffffffff163373ffffffffffffffffffffffffffffffffffffffff167fddf252ad1be2c89b69c2b068fc378daa952ba7f163c4a11628f55a4df523b3ef846040516104d491906106bf565b60405180910390a36001905092915050565b600081519050919050565b600082825260208201905092915050565b60005b83811015610520578082015181840152602081019050610505565b8381111561052f576000848401525b50505050565b6000601f19601f8301169050919050565b6000610551826104e6565b61055b81856104f1565b935061056b818560208601610502565b61057481610535565b840191505092915050565b600060208201905081810360008301526105998184610546565b905092915050565b600080fd5b600073ffffffffffffffffffffffffffffffffffffffff82169050919050565b60006105d1826105a6565b9050919050565b6105e1816105c6565b81146105ec57600080fd5b50565b6000813590506105fe816105d8565b92915050565b6000819050919050565b61061781610604565b811461062257600080fd5b50565b6000813590506106348161060e565b92915050565b60008060408385031215610651576106506105a1565b5b600061065f858286016105ef565b925050602061067085828601610625565b9150509250929050565b60008115159050919050565b61068f8161067a565b82525050565b60006020820190506106aa6000830184610686565b92915050565b6106b981610604565b82525050565b60006020820190506106d460008301846106b0565b92915050565b6000602082840312156106f0576106ef6105a1565b5b60006106fe848285016105ef565b91505092915050565b7f4e487b7100000000000000000000000000000000000000000000000000000000600052602260045260246000fd5b6000600282049050600182168061074e57607f821691505b6020821081141561076257610761610707565b5b50919050565b7f4e487b7100000000000000000000000000000000000000000000000000000000600052601160045260246000fd5b60006107a282610604565b91506107ad83610604565b9250827fffffffffffffffffffffffffffffffffffffffffffffffffffffffffffffffff038211156107e2576107e1610768565b5b828201905092915050565b60006107f882610604565b915061080383610604565b92508282101561081657610815610768565b5b82820390509291505056fea2646970667358221220392fc27205c3d63740459857fa2f210d87f6941935030d535fafef890f768d7764736f6c634300080a0033",
  "immutableReferences": {},
  "source": "// SPDX-License-Identifier: MIT\npragma solidity ^0.8.7;\n\ncontract DappToken {\n    string public name = \"DappToken\";\n    string public symbol = \"DAT\";\n    uint256 public totalSupply;\n    mapping(address => uint256) public balanceOf;\n    mapping(address => mapping(address => uint256)) allowance;\n    event Transfer(address indexed _from, address indexed _to, uint256 _value);\n    event Allowance(\n        address indexed _owner,\n        address indexed _spender,\n        uint256 _value\n    );\n\n    constructor(uint256 _initSupply) {\n        totalSupply = _initSupply;\n        balanceOf[msg.sender] = _initSupply;\n    }\n\n    function transfer(address _to, uint256 _value)\n        public\n        returns (bool sucess)\n    {\n        require(balanceOf[msg.sender] >= _value);\n        balanceOf[_to] += _value;\n        balanceOf[msg.sender] -= _value;\n        emit Transfer(msg.sender, _to, _value);\n        return true;\n    }\n\n    function approve(address _spender, uint256 _value)\n        public\n        returns (bool success)\n    {\n        allowance[msg.sender][_spender] = _value;\n        emit Allowance(msg.sender, _spender, _value);\n        return true;\n    }\n    \n}\n",
  "sourcePath": "/Users/sonusharma/Documents/workspace/token_sales/contracts/DappToken.sol",
  "compiler": {
    "name": "solc",
    "version": "0.8.10+commit.fc410830.Emscripten.clang"
  },
  "schemaVersion": "3.4.3",
  "updatedAt": "2021-11-28T05:26:59.296Z",
  "networkType": "ethereum",
  "devdoc": {
    "kind": "dev",
    "methods": {},
    "version": 1
  },
  "userdoc": {
    "kind": "user",
    "methods": {},
    "version": 1
  }
}